{
  "contractName": "lottery",
  "abi": [
    {
      "inputs": [],
      "stateMutability": "nonpayable",
      "type": "constructor"
    },
    {
      "inputs": [
        {
          "internalType": "uint256",
          "name": "",
          "type": "uint256"
        }
      ],
      "name": "Lotterybuyers",
      "outputs": [
        {
          "internalType": "address payable",
          "name": "",
          "type": "address"
        }
      ],
      "stateMutability": "view",
      "type": "function",
      "constant": true
    },
    {
      "inputs": [],
      "name": "manger",
      "outputs": [
        {
          "internalType": "address",
          "name": "",
          "type": "address"
        }
      ],
      "stateMutability": "view",
      "type": "function",
      "constant": true
    },
    {
      "stateMutability": "payable",
      "type": "receive",
      "payable": true
    },
    {
      "inputs": [],
      "name": "getblance",
      "outputs": [
        {
          "internalType": "uint256",
          "name": "",
          "type": "uint256"
        }
      ],
      "stateMutability": "view",
      "type": "function",
      "constant": true
    },
    {
      "inputs": [],
      "name": "random",
      "outputs": [
        {
          "internalType": "uint256",
          "name": "",
          "type": "uint256"
        }
      ],
      "stateMutability": "view",
      "type": "function",
      "constant": true
    },
    {
      "inputs": [],
      "name": "TotalNumberOfBuyer",
      "outputs": [
        {
          "internalType": "uint256",
          "name": "",
          "type": "uint256"
        }
      ],
      "stateMutability": "view",
      "type": "function",
      "constant": true
    },
    {
      "inputs": [],
      "name": "Winer",
      "outputs": [],
      "stateMutability": "nonpayable",
      "type": "function"
    },
    {
      "inputs": [],
      "name": "ReloadLottery",
      "outputs": [],
      "stateMutability": "nonpayable",
      "type": "function"
    }
  ],
  "bytecode": "0x608060405234801561000f575f80fd5b50335f806101000a81548173ffffffffffffffffffffffffffffffffffffffff021916908373ffffffffffffffffffffffffffffffffffffffff160217905550610a178061005c5f395ff3fe608060405260043610610073575f3560e01c80635ec01e4d1161004d5780635ec01e4d1461020b578063c0da38ce14610235578063caeb6c441461025f578063dbf274f11461029b576101b1565b80631adffc77146101b5578063218c62dc146101cb57806334b467a4146101e1576101b1565b366101b157670de0b6b3a76400003410156100c3576040517f08c379a00000000000000000000000000000000000000000000000000000000081526004016100ba906106c5565b60405180910390fd5b5f8054906101000a900473ffffffffffffffffffffffffffffffffffffffff1673ffffffffffffffffffffffffffffffffffffffff163373ffffffffffffffffffffffffffffffffffffffff1603610150576040517f08c379a00000000000000000000000000000000000000000000000000000000081526004016101479061072d565b60405180910390fd5b600133908060018154018082558091505060019003905f5260205f20015f9091909190916101000a81548173ffffffffffffffffffffffffffffffffffffffff021916908373ffffffffffffffffffffffffffffffffffffffff1602179055005b5f80fd5b3480156101c0575f80fd5b506101c96102c5565b005b3480156101d6575f80fd5b506101df6103db565b005b3480156101ec575f80fd5b506101f5610492565b6040516102029190610763565b60405180910390f35b348015610216575f80fd5b5061021f610527565b60405161022c9190610763565b60405180910390f35b348015610240575f80fd5b5061024961055f565b60405161025691906107bb565b60405180910390f35b34801561026a575f80fd5b5061028560048036038101906102809190610802565b610582565b604051610292919061084d565b60405180910390f35b3480156102a6575f80fd5b506102af6105bd565b6040516102bc9190610763565b60405180910390f35b5f8054906101000a900473ffffffffffffffffffffffffffffffffffffffff1673ffffffffffffffffffffffffffffffffffffffff163373ffffffffffffffffffffffffffffffffffffffff161461031b575f80fd5b6003600180549050101561032d575f80fd5b5f80610337610527565b90505f6001805490508261034b9190610893565b905060018181548110610361576103606108c3565b5b905f5260205f20015f9054906101000a900473ffffffffffffffffffffffffffffffffffffffff1692508273ffffffffffffffffffffffffffffffffffffffff166108fc6103ad610492565b90811502906040515f60405180830381858888f193505050501580156103d5573d5f803e3d5ffd5b50505050565b5f8054906101000a900473ffffffffffffffffffffffffffffffffffffffff1673ffffffffffffffffffffffffffffffffffffffff163373ffffffffffffffffffffffffffffffffffffffff1614610431575f80fd5b5f67ffffffffffffffff81111561044b5761044a6108f0565b5b6040519080825280602002602001820160405280156104795781602001602082028036833780820191505090505b506001908051906020019061048f9291906105c9565b50565b5f805f9054906101000a900473ffffffffffffffffffffffffffffffffffffffff1673ffffffffffffffffffffffffffffffffffffffff163373ffffffffffffffffffffffffffffffffffffffff1614610521576040517f08c379a000000000000000000000000000000000000000000000000000000000815260040161051890610967565b60405180910390fd5b47905090565b5f4442600180549050604051602001610542939291906109a5565b604051602081830303815290604052805190602001205f1c905090565b5f8054906101000a900473ffffffffffffffffffffffffffffffffffffffff1681565b60018181548110610591575f80fd5b905f5260205f20015f915054906101000a900473ffffffffffffffffffffffffffffffffffffffff1681565b5f600180549050905090565b828054828255905f5260205f2090810192821561063f579160200282015b8281111561063e578251825f6101000a81548173ffffffffffffffffffffffffffffffffffffffff021916908373ffffffffffffffffffffffffffffffffffffffff160217905550916020019190600101906105e7565b5b50905061064c9190610650565b5090565b5b80821115610667575f815f905550600101610651565b5090565b5f82825260208201905092915050565b7f4e6f74204d696e696d756d2056616c75650000000000000000000000000000005f82015250565b5f6106af60118361066b565b91506106ba8261067b565b602082019050919050565b5f6020820190508181035f8301526106dc816106a3565b9050919050565b7f4d616e6765722063616e7420627579205469636b0000000000000000000000005f82015250565b5f61071760148361066b565b9150610722826106e3565b602082019050919050565b5f6020820190508181035f8301526107448161070b565b9050919050565b5f819050919050565b61075d8161074b565b82525050565b5f6020820190506107765f830184610754565b92915050565b5f73ffffffffffffffffffffffffffffffffffffffff82169050919050565b5f6107a58261077c565b9050919050565b6107b58161079b565b82525050565b5f6020820190506107ce5f8301846107ac565b92915050565b5f80fd5b6107e18161074b565b81146107eb575f80fd5b50565b5f813590506107fc816107d8565b92915050565b5f60208284031215610817576108166107d4565b5b5f610824848285016107ee565b91505092915050565b5f6108378261077c565b9050919050565b6108478161082d565b82525050565b5f6020820190506108605f83018461083e565b92915050565b7f4e487b71000000000000000000000000000000000000000000000000000000005f52601260045260245ffd5b5f61089d8261074b565b91506108a88361074b565b9250826108b8576108b7610866565b5b828206905092915050565b7f4e487b71000000000000000000000000000000000000000000000000000000005f52603260045260245ffd5b7f4e487b71000000000000000000000000000000000000000000000000000000005f52604160045260245ffd5b7f4e6f74206d616e676572000000000000000000000000000000000000000000005f82015250565b5f610951600a8361066b565b915061095c8261091d565b602082019050919050565b5f6020820190508181035f83015261097e81610945565b9050919050565b5f819050919050565b61099f61099a8261074b565b610985565b82525050565b5f6109b0828661098e565b6020820191506109c0828561098e565b6020820191506109d0828461098e565b60208201915081905094935050505056fea2646970667358221220d38ec76dac8a1c8eb1415a46ca17061d7b5c05eb74205be7e0902f36ab94e55664736f6c63430008150033",
  "immutableReferences": {},
  "source": "// SPDX-License-Identifier: MIT\npragma solidity ^0.8.7;\n\n// Lottery Contract \n\n\ncontract lottery {\n  \n    //Golbal veriables \n     address public manger ;  \n     address payable[] public Lotterybuyers ;  \n     \n\n     \n    constructor(){\n                  manger=msg.sender;\n    }\n    //receive payable function for deposits \n    receive() payable external{\n           require(msg.value >= 1 ether,'Not Minimum Value');\n           require(msg.sender!= manger , 'Manger cant buy Tick');\n           Lotterybuyers.push(payable(msg.sender));\n    }\n    // showing balance\n    function getblance() view public returns(uint){\n        require(msg.sender==manger,'Not manger');\n        return address(this).balance;\n    }\n    // generating Random Winner\n    function random() public view returns(uint){\n       return uint(keccak256(abi.encodePacked(block.prevrandao,block.timestamp,Lotterybuyers.length)));\n    }\n    //Return Lotterybuyers All\n    function TotalNumberOfBuyer() public view returns(uint){\n        return Lotterybuyers.length;\n    }\n    // Winner selecting \n    function Winer() public {\n        require(msg.sender==manger);\n        require(Lotterybuyers.length>=3);\n        address payable Winner ;\n        uint r = random();\n        uint index = r % Lotterybuyers.length;\n        Winner = Lotterybuyers[index];\n        Winner.transfer(getblance());\n    }\n    // Transfer to Winner and clear \n    function ReloadLottery() public {\n        require(msg.sender==manger);\n        Lotterybuyers=new address payable[](0);\n    }\n\n    \n}",
  "sourcePath": "/Users/felixmeng/truffle_project/contracts/lottery.sol",
  "compiler": {
    "name": "solc",
    "version": "0.8.21+commit.d9974bed.Emscripten.clang"
  },
  "schemaVersion": "3.4.15",
  "updatedAt": "2023-08-10T03:40:25.045Z",
  "networkType": "ethereum",
  "devdoc": {
    "kind": "dev",
    "methods": {},
    "version": 1
  },
  "userdoc": {
    "kind": "user",
    "methods": {},
    "version": 1
  }
}