{
  "contractName": "SimpleStorage",
  "abi": [
    {
      "inputs": [
        {
          "internalType": "uint256",
          "name": "_data",
          "type": "uint256"
        }
      ],
      "name": "updateData",
      "outputs": [],
      "stateMutability": "nonpayable",
      "type": "function"
    },
    {
      "inputs": [],
      "name": "readData",
      "outputs": [
        {
          "internalType": "uint256",
          "name": "",
          "type": "uint256"
        }
      ],
      "stateMutability": "view",
      "type": "function",
      "constant": true
    }
  ],
  "bytecode": "0x608060405234801561000f575f80fd5b506101438061001d5f395ff3fe608060405234801561000f575f80fd5b5060043610610034575f3560e01c806309e9600814610038578063bef55ef314610054575b5f80fd5b610052600480360381019061004d91906100ba565b610072565b005b61005c61007b565b60405161006991906100f4565b60405180910390f35b805f8190555050565b5f8054905090565b5f80fd5b5f819050919050565b61009981610087565b81146100a3575f80fd5b50565b5f813590506100b481610090565b92915050565b5f602082840312156100cf576100ce610083565b5b5f6100dc848285016100a6565b91505092915050565b6100ee81610087565b82525050565b5f6020820190506101075f8301846100e5565b9291505056fea26469706673582212203bfede47ddd7562124330da57bafd24f61dbb1d4027b8b3663bc9af94f3c7fce64736f6c63430008150033",
  "immutableReferences": {},
  "source": "pragma solidity ^0.8.7;\n\ncontract SimpleStorage{\n    uint data;\n\n    function updateData(uint _data) external {\n        data = _data;\n    }\n    function readData() external view returns(uint){\n        return data;\n    }\n}",
  "sourcePath": "/Users/felixmeng/truffle_project/contracts/SimpleStorage.sol",
  "compiler": {
    "name": "solc",
    "version": "0.8.21+commit.d9974bed.Emscripten.clang"
  },
  "schemaVersion": "3.4.15",
  "updatedAt": "2023-08-10T03:34:31.696Z",
  "networkType": "ethereum",
  "devdoc": {
    "kind": "dev",
    "methods": {},
    "version": 1
  },
  "userdoc": {
    "kind": "user",
    "methods": {},
    "version": 1
  }
}